:400000000080002011000000350300003503000008B5044B1A6803F53F5302331A6000F0A9F900BFFA46004010B5054C237833B9044B13B10448AFF300800123237010BD65
:400040004881FF1F00000000C0130000084B10B51BB108490848AFF300800848036803B910BD074B002BFBD0BDE81040184700BF000000004C81FF1FC0130000C880FF1F5C
:400080000000000010B50446002100F08FFBDC2000F01EFC0121204600F0C8FB10BD00BF38B5012000F040FC00F00F05002000F03BFC044600F0F0FB04EB052080B238BDE4
:4000C00010B584B062B600F0F5F900F0CBFC4820FFF7D8FFFFF7E4FF0446322000F052FC2246044901A800F047FD01A800F0D4FCEDE700BFC4130000FEE700BFF0B40022A3
:40010000174611E050F82760F3B226F0FF0608E001EB420511F812406D78A5550132013BDBB2002BF4D10137142FEBD9F0BC7047064B1B78DBB203F00701054A11701B099F
:40014000013213704422034B1A707047CF0100496E5800407658004008B50A46002100F002FD08BD38B53322244B1A80182202331A70022203F27E231A7008224FF0402371
:400180001A70032103F5007319701D4B1B78DBB21C490B701C4B1A8041F25122023B1A80002419250CE0194B1B7803F0010343EA440404F003044FF4F07000F08DFC013DB1
:4001C0000DB1032CEFD115B90320FFF795FF104B4FF480721A8007221A7000220D490A704820023108701A700222033B1A700A4A137843F00103137038BD00BF8040004032
:4002000008010049A146004022420040254200400440004006400040A243004008B500F097FC08BD38B572B6334A137843F00403137000240CE0314D630019194A00114628
:400240002A44084691882858FFF786FF0134E4B2092CF0D900240BE02849A3001819420088188022016CC06BFFF7D8FF0134E4B2002CF1D022494FF09040FFF73FFF214AD7
:40028000137843F0020313701032137843F0020313701D4C237843F040032370A2F58632513A137843F0100313700A2217491848FFF7B4FF082217491748FFF7AFFF0A22E7
:4002C00016491748FFF7AAFF164A137843F008031370154D61232B70FFF744FF81232B700122124B1A70FFF723FF0E2221461048FFF794FF38BD00BFE8460040C813000065
:400300005400004803500140A043004084030048C051004090030048125100409803004820510040224300400048004004000840B043004008B500F0DFFB03680C2B00D192
:40034000FEE7FEE708B5094B1A681044084BC31A802B02DC054B186005E000F0CDFB0C2303604FF0FF32104608BD00BFCC80FF1F8881FF1F08B5104E104D16E029686B686F
:40038000AC68002204E051F8040B43F8040B0432A242F8D1E868002203E0002143F8041B04328242F9D11035013E002EE6D100F0A9FBFFF785FEFEE7010000006814000032
:4003C00008B5104A104B1A60104A136843F40073136000230AE0032B03D80D4A52F8231000E00C490C4A42F8231001332F2BF2D90A4B1A780A4B1A70074A0A4B1A60FFF708
:4004000011FF08BD0004FA050CED00E014ED00E000000000350300000080FF1FBC760040C080FF1F08ED00E038B50222114B1A7081220E3B1A70082202331A700F251133E1
:400440001D70002401331C704FF400420A4B1A600721284600F0C0FA0849284600F0A8FA1022074B1A70074B1C70074B1C70074B1C7038BDD649004080E100E0DD04000008
:400480007081FF1F7681FF1F7E81FF1F7481FF1F08B500F029FB064A137843F0040313701032137843F00403137000F021FB08BDA543004008B5074B1B7823B9FFF7B4FFD5
:4004C0000122044B1A70FFF7E3FF4FF40042024B1A6008BD6481FF1F00E100E038B5A54B1C78A54B1B7813F0400F00F03A81E4B214F0010F00F01D819F4B1B78453B052BFD
:4005000000F21481DFE813F006008200120112010600DF0004F0DF0504F00A04082C42D1954B1B78DBB2452B35D1944B1B7813F0FF0F10D0924B1B681B78DBB2914A1370FF
:4005400004228C4B1A7001228F4B1A7046228A4B1A702C46EDE08D4B1B7813F0020F0DD08B4A137843F00A0313706022824B1A704FF40042874B1A602C46DAE0864A1378B7
:4005800043F0100313701022844B1A700422023B1A702C46CDE00022764B1A704A22764B1A702C46C5E00A2C2BD1794A137843F0A0031370754B1B7813F0020F14D06E4BC3
:4005C0001B7813F0080F01D0092300E00A23704A11780B4313706022674B1A704FF400426C4B1A602C46A4E06B4A137843F0100313701022694B1A700422023B1A702C46EE
:4006000097E0002000F0BCF92C4692E014F0020F36D15D4B1A78D2B2584B1B78DBB29A4210D2594A1378DBB255490968CB5CDBB254490B7004214F4B197013780133DBB215
:40064000137076E0514B1B7813F0020F0CD0504A137843F00A0313706022474B1A704FF400424C4B1A6064E04B4A137843F0100313701022494B1A700422023B1A7058E0C4
:40068000424B1B7813F0020F0CD0414A137843F09A0313706022384B1A704FF400423D4B1A6046E03C4A137843F01003137010223A4B1A700422023B1A70354A137843F040
:4006C0009003137035E0364A1378DBB2354908682C490978C9B2C15413780133DBB213701278D2B2304B1B78DBB29A4203D21022204B1A701DE0254B1B7813F0020F0CD083
:40070000234A137843F00903137060221A4B1A704FF400421F4B1A600BE01F4A137843F0100313700022134B1A7002E0002000F027F914F0200F1CD00F4B1B7813F0080F3B
:4007400001D0012300E00223114A11780B431370114A137803F0EF0313701022064B1A7038BD054B1B7813F0100F02D11022024B1A7038BDD74900407081FF1F7581FF1F21
:400780008081FF1FD84900407481FF1F7C81FF1F7681FF1F80E100E0D6490040D94900407E81FF1F7881FF1F7D81FF1F1A4B1B78DBB2102B29D1194B1B7813F0080F26D162
:4007C0004FF40042164B1A604000C0B229B140F001004922104B1A7002E045220E4B1A70104B1870012201331A700F4B1B7813F0010FFAD00C4B1B7803F00A030A2B08D1DA
:400800001022054B1A700320704702207047012070470020704700BF7081FF1FD949004080E100E0D8490040D7490040164B1B7813F0040F23D04000C0B229B140F001005E
:400840004922124B1A7002E04522104B1A70104B1870122201331A700422023B1A700D4B1B7813F0010FFAD00A4B1B7803F00A030A2B06D11022054B1A7003207047022072
:4008800070470020704700BFD94900407081FF1FD8490040D74900400A4B1B7813F0040F0ED01023074A13700421023A1170064A1370064B1B7813F0210FFAD00020704769
:4008C00002207047D94900407081FF1FD7490040114B1B7813F0040F1BD0104B18700422013B1A7046220E4B1A700E4B1B7813F0010FFAD00B4B1B7813F0020F04D1602227
:40090000074B1A70002070476022054B1A70032070470220704700BFD9490040D84900407081FF1FD7490040114B1B7813F0040F1BD0104B1B78DBB2492B05D100220E4BD4
:400940001A704A220B4B1A700B4B1B7813F0010FFAD00A4B1B78DBB218B11021064A117004E06021034A117000E0002318467047D94900407081FF1FD7490040D84900401E
:4009800001BE704710B5044605E0084B186800F0A3F8A4F50044B4F5004FF6D8034B586800FB04F000F098F810BD00BFD080FF1F70B504460E46074B1D681F2802D9002079
:4009C000FFF7DEFF04F01F04103455F8240045F8246070BD08ED00E038B504460D46072902D90020FFF7CCFF1F2C02D90020FFF7C7FF04F01F0000F1604000F564406D0172
:400A0000EDB2057038BD00BF7222074B1A702022013B1A7006225D3B1A70472210331A7000224F331A7070478D64004010B500F05BF804460A4A137843F020031370013A9B
:400A4000137843F0100313700232137843F01003137000F033F8204600F04AF810BD00BF9D64004008B5054B1B7823B9FFF7CCFF0122024B1A70FFF7D9FF08BD6581FF1F4C
:400A8000034B1B7813F0040FFAD1024B187070476E6400404E64004038B5074B1B782BB938BDFFF7EDFF0134A4B201E005460024285D0028F5D138BD6581FF1F054A137836
:400AC00043F0010313701032137843F001031370704700BFA24300400230800803D000BF01380046FCD17047EFF3108072B6704780F31088704700BF014B1868704700BFB7
:400B00004081FF1F0E4B70B51E460E4C0025E41AA410A54204D056F8253098470135F8E700F090FC084B094C1E46E41AA4100025A54204D056F8253098470135F8E770BD93
:400B40005014000050140000501400005814000010B5431E0A44914204D011F8014B03F8014FF8E710BD03460244934202D003F8011BFAE7704700000EB400B54FF4027164
:400B80009CB0ADF814106FF00041049107914FF6FF711DAB02900690084853F8042BADF81610006802A9019300F064F8029B00221A701CB05DF804EB03B070474081FF1F84
:400BC0002DE9F0478E6882469E420C46914698463ED88A8912F4906F3AD02568096902236F1A656905EB450595FBF3F57B1C43449D4238BF1D4653050FD5294600F040FB71
:400C0000064698B13A462169FFF7A2FFA38923F4906343F08003A38113E02A4600F08EFB064670B92169504600F0DEFA0C23CAF80030A3894FF0FF3043F04003A381BDE83B
:400C4000F08726613E44266046466561ED1BA560464528BF464649463246206800F0A8FAA36800209B1BA36023681E442660BDE8F08700002DE9F04F9DB003938B8980466B
:400C80001C060D4616460DD50B695BB9402100F0F7FA2860286118B90C23C8F80030CDE040236B610023099320238DF82930DFF89CB130238DF82A3037463C4614F8013B5D
:400CC0001BB9B7EB060910D003E0252BF9D02746F3E74B46324629464046FFF771FF013000F0A780099B4B4409933B78002B00F0A08000234FF0FF320493079305920693EF
:400D00008DF853301A930126052221784E4800F041FA671C049B38B14B4A3C46801A06FA00F018430490EFE7D90644BF20228DF853201A0744BF2B228DF8532022782A2A72
:400D400003D0079A00210A200BE0039A111D12680391002A10DA524243F00200079204900BE027463B780134303B092B03D800FB02320121F5E701B107923B782E2B1ED1B9
:400D80007B782A2B0AD1039B02371A1D1B680392002BB8BF4FF0FF33059310E0002319460593781C0A2407463A780130303A092A03D804FB01210123F5E703B1059103223B
:400DC0003978224800F0E6F940B14023CBEB000003FA00F0049B013718430490397806221B487E1C8DF8281000F0D4F988B1194B33B9039B073323F007030833039314E0B9
:400E000003AB00932A46144B04A94046AFF3008007E003AB00932A460F4B04A9404600F093F8B0F1FF3F824603D0099B5344099342E7AB895B0601D4099801E04FF0FF30D9
:400E40001DB0BDE8F08F00BF10140000161400001A14000000000000C10B00002DE9F04791461F460A698B6806469342B8BF1346C9F8003091F843200C46DDF8208012B133
:400E80000133C9F800302368990642BFD9F800300233C9F80030256815F0060510D104F1190A07E00123524639463046C04701301AD00135E368D9F800209B1A9D42F1DB99
:400EC00094F843302268003318BF012392060FD5E118302081F843005A1C94F845102244023382F8431003E04FF0FF30BDE8F08704F1430239463046C0470130F4D02268D9
:400F0000D9F80050E36802F00602042A08BF5D1B2269A3680CBF25EAE57500259342C4BF9B1AED184FF000091A344D4509D00123224639463046C0470130D5D009F101097A
:400F4000F3E70020BDE8F0872DE9F04317460A7E85B06E2A984606460C460C9B01F1430E00F0AE8011D8632A22D009D8002A00F0BB80582A40F0CA8081F84520834955E063
:400F8000642A1ED0692A1CD0C0E0732A00F0B08009D86F2A2ED0702A40F0B8800A6842F020020A603EE0752A24D0782A3AD0ADE01A6801F14205111D1960136884F842307A
:400FC000A8E021681A6811F0800F02D0111D196008E011F0400F02F10401196002D0B2F9003000E01368002B3CDA2D225B4284F8432037E021681A6811F0800F02D0111DE6
:40100000196007E011F0400F02F10401196001D0138800E01368227E5C496F2A14BF0A2208221BE078225A4984F845202268186812F0800F00F104051D6003D1550601D591
:40104000038800E00368D00744BF42F0200222601BB9226822F0200222601022002084F8430001E049490A226568002DA56008DB206820F0040020602BB9002D7DD175460E
:401080000CE0002B79D07546B3FBF2F002FB1033CB5C05F8013D03460028F5D1082A0BD12368DA0708D5236962689A42DEBF302305F8013C05F1FF35C5EB0E0323612EE07C
:4010C00008681A6810F0800F496903D0101D1860136808E010F0400F02F104001860136801D0198000E0196000232361754616E01A68111D1960156800216268284600F09F
:4011000049F808B1401B6060636804E004F1420584F8422001232361002384F84330CDF800803B4603AA21463046FFF797FE013002D14FF0FF3026E023692A4639463046D3
:40114000C0470130F5D023689B0710D5002504F1190907E001234A4639463046C0470130E7D00135E368039A9B1A9D42F2DBE068039B9842B8BF184605E00B7804F14205ED
:4011800084F842308AE705B0BDE8F083211400003214000010B5C9B202449042034605D01C7801308C42F8D1184610BD002010BD884210B501EB020301D8421E0BE0984220
:4011C000FBD28118D21AD34204D013F8014D01F8014DF8E710BD994204D011F8014B02F8014FF8E710BD000038B50546002944D051F8043C0C1F002BB8BFE41800F0D4F8EB
:401200001E4A1368114613B96360146030E0A3420DD92268A018834201BF18685B681218226063600C6023E0A24203D813465A68002AF9D118681918A1420BD121680144A2
:4012400058188242196013D110685268014419605A600DE002D90C232B6009E021686018824201BF106852680918216062605C602846BDE8384000F098B838BD6C81FF1F26
:4012800070B5CD1C25F0030508350C2D38BF0C25002D064601DBA94202D90C23336046E000F082F8234B1C681A462146A1B10B685B1B0ED40B2B03D90B60CC18CD501EE0A6
:4012C0008C420BBF63684B681360636018BF0C4615E00C464968E9E7174C23681BB9304600F052F820602946304600F04DF8431C18D0C41C24F00304A0420DD125603046A8
:4013000000F053F804F10B00231D20F00700C31A0ED05A42E25070BD211A304600F034F80130EBD10C233360304600F03EF8002070BD00BF6C81FF1F6881FF1FF8B5074635
:4013400015460E4621B91146BDE8F840FFF798BF1AB9FFF749FF2846F8BD00F027F885420ED929463846FFF78BFF044650B131462A46FFF7EDFB31463846FFF735FF01E0F5
:401380003046F8BD2046F8BD38B5064C0023054608462360FEF7D6FF431C02D1236803B12B6038BD8481FF1F7047704751F8040C0028BEBF091851F8043CC01804387047AA
:4013C0000000000025640000C84900401900005100401000305100404000F0510040100000000140800C000D0140000300140140000800400140000A004C014000020050E2
:4014000001402000800C01400403004880004300232D302B2000686C4C00656667454647003031323334353637383941424344454600303132333435363738396162636444
:4014400065660000F8B500BFF8BC08BC9E4670474D000000C1030000F8B500BFF8BC08BC9E4670472900000078140000C880FF1F8000000040000000000000008881FF1F90
:401480000000E02EC05D00001800000000366E0100000000000000000000000000000000000000000000000000000000000000000E14000000000000000000000000000022
:4014C000000000000000000000000000000000000000000000000000000000000000000000000000000000000000000000000000E080FF1F0000000000000000000000006E
:4015000000000000000000000000000000000000000000000000000000000000000000000000000000000000000000000000000000000000000000000000000000000000AB
:40154000000000000000000000000000000000000000000000000000000000000000000000000000000000000000000000000000000000000000000000000000000000006B
:40158000000000000000000000000000000000000000000000000000000000000000000000000000000000000000000000000000000000000000000000000000000000002B
:4015C00000000000000000000000000000000000000000000000000000000000000000000000000000000000000000000000000000000000000000000000000000000000EB
:020000040003F7
:0200000480007A
:400000000552004003640040020B0140150C0140500D0140700E0140410F0140031501400117014001190140031B01400242014001430140044501400446014003480140CD
:4000400010490140084C0140064D01400250014001510140100211021401600264038C388D728E0FB012B64004010808120416021A041C011D0122022401300832043402F3
:40008000350136013E153F105418580459045B045F01004601210410072008020A040B100D480E800F08111415021708180119201B251E4A1F8420042108222023012704A7
:4000C000281029202A022B01310232283380368137013868390140014108430148014A484B1051015A205F01670A680469946B287034710472028204830189028A049050F1
:4001000092249310940495049C029D049E029F04A001A280A424A7A0A902AA80B421C06FC2FEC436CA0FCC1FCE0FD00BD20CD684D83000130108020404E0051C07230880B9
:4001400009330A200B0C0C130D1F0E0C0F2010401220140A150C1614182019041AC01D3F2208232324E0250229032A152C032D012E14300F312C330F34E0351036103A029A
:400180003B8A3E403F1040434105460E47CB483449FF4AFF4BFF4EF04F44500C5401580459045A045B045F0166C06A406B028414870889808A038B138C108EAC930C96200C
:4001C000992C9B439C0C9E71A009A171A2D0A30EA4DCA622A810AA40AD71AF06B21FB330B50FB6E0B7C0B988BA80BB20BF04C002C704C9FFCA07CBFFCC40CD20CEF0CF05F1
:40020000D008D804D904DA04DF01E040E1A8E240E32000080101020403020498080A0A040D800F201002112413021608170A188019A01A041B021C101D801F4020422250F1
:4002400023102620272A280229202A042BA02D012F423020310432403620370238443A023B103E083F204220430247204B8050075280551056285710582059825B04600815
:400280006220C0EFC2AEC47FCA9FCCAECE6FD023D208D60FE008E401EA05E204E204E008E401EA053E10CE20961000085D80C008D604B004B580EA04EC0282209610E220CC
:4002C0001220164072207710822086409A209B10AA10AB10C430DC80DE20E010E480EAA01080132016207B107F408080C40EDE03831087409780A710AA20AB2000010E012C
:4003000003C0000001FF00000018010010080C00001C01E108C0340001E70018003C02C2000000E30010000018440000188000000000000420000138181F06C0080000205A
:40034000000040006405030001E000C022FFFFFF62A0F0410C00000000000211040404040000000100000000000040020010301000101012000000000000000000000000EA
:4003800000000000030000000300030000000000000B0B00000000000200010202000200000000000000000000000000000000000000000000000000000000000000000015
:4003C00000000000000000000000000000000000000000000000000000000000000000000000000000000000000000000000000000000000000000000000000000000000FD
:4004000000000000000000000000000000000000000000000000000000000000000000000000000000000000000000000000000000000000000000000000000000000000BC
:40044000000000000000000000000000000000000000000000000000000000000000000000000000000000000000000000000000000000000000000000000000000000007C
:40048000000000000000000000000000000000000000000000000000000000000000000000000000000000000000000000000000000000000000000000000000000000003C
:0200000490006A
:0400000000004005B7
:0200000490105A
:04000000BC90ACAF55
:0200000490303A
:02000000168F59
:0200000490402A
:4000000000000000000000000000000000000000000000000000000000000000000000000000000000000000000000000000000000000000000000000000000000000000C0
:400040000000000000000000000000000000000000000000000000000000000000000000000000000000000000000000000000000000000000000000000000000000000080
:400080000000000000000000000000000000000000000000000000000000000000000000000000000000000000000000000000000000000000000000000000000000000040
:4000C0000000000000000000000000000000000000000000000000000000000000000000000000000000000000000000000000000000000000000000000000000000000000
:0200000490501A
:0C00000000012E16006900012E1E16F8EB
:00000001FF